{
  "contractName": "CertificateRegistry",
  "abi": [
    {
      "inputs": [],
      "stateMutability": "nonpayable",
      "type": "constructor"
    },
    {
      "anonymous": false,
      "inputs": [
        {
          "indexed": true,
          "internalType": "uint256",
          "name": "id",
          "type": "uint256"
        },
        {
          "indexed": false,
          "internalType": "string",
          "name": "studentName",
          "type": "string"
        },
        {
          "indexed": false,
          "internalType": "string",
          "name": "courseName",
          "type": "string"
        }
      ],
      "name": "CertificateRegistered",
      "type": "event"
    },
    {
      "anonymous": false,
      "inputs": [
        {
          "indexed": true,
          "internalType": "uint256",
          "name": "id",
          "type": "uint256"
        }
      ],
      "name": "CertificateRevoked",
      "type": "event"
    },
    {
      "inputs": [
        {
          "internalType": "uint256",
          "name": "",
          "type": "uint256"
        }
      ],
      "name": "certificates",
      "outputs": [
        {
          "internalType": "uint256",
          "name": "id",
          "type": "uint256"
        },
        {
          "internalType": "string",
          "name": "studentName",
          "type": "string"
        },
        {
          "internalType": "string",
          "name": "courseName",
          "type": "string"
        },
        {
          "internalType": "uint256",
          "name": "issueDate",
          "type": "uint256"
        },
        {
          "internalType": "bool",
          "name": "isValid",
          "type": "bool"
        }
      ],
      "stateMutability": "view",
      "type": "function",
      "constant": true
    },
    {
      "inputs": [],
      "name": "owner",
      "outputs": [
        {
          "internalType": "address",
          "name": "",
          "type": "address"
        }
      ],
      "stateMutability": "view",
      "type": "function",
      "constant": true
    },
    {
      "inputs": [
        {
          "internalType": "uint256",
          "name": "_id",
          "type": "uint256"
        },
        {
          "internalType": "string",
          "name": "_studentName",
          "type": "string"
        },
        {
          "internalType": "string",
          "name": "_courseName",
          "type": "string"
        }
      ],
      "name": "registerCertificate",
      "outputs": [],
      "stateMutability": "nonpayable",
      "type": "function"
    },
    {
      "inputs": [
        {
          "internalType": "uint256",
          "name": "_id",
          "type": "uint256"
        }
      ],
      "name": "getCertificate",
      "outputs": [
        {
          "internalType": "uint256",
          "name": "id",
          "type": "uint256"
        },
        {
          "internalType": "string",
          "name": "studentName",
          "type": "string"
        },
        {
          "internalType": "string",
          "name": "courseName",
          "type": "string"
        },
        {
          "internalType": "uint256",
          "name": "issueDate",
          "type": "uint256"
        },
        {
          "internalType": "bool",
          "name": "isValid",
          "type": "bool"
        }
      ],
      "stateMutability": "view",
      "type": "function",
      "constant": true
    },
    {
      "inputs": [
        {
          "internalType": "uint256",
          "name": "_id",
          "type": "uint256"
        }
      ],
      "name": "revokeCertificate",
      "outputs": [],
      "stateMutability": "nonpayable",
      "type": "function"
    }
  ],
  "bytecode": "0x608060405234801561000f575f80fd5b50335f806101000a81548173ffffffffffffffffffffffffffffffffffffffff021916908373ffffffffffffffffffffffffffffffffffffffff1602179055506110478061005c5f395ff3fe608060405234801561000f575f80fd5b5060043610610055575f3560e01c806306f5497e1461005957806351640fee14610075578063663b3e22146100a95780638d7ff1bd146100dd5780638da5cb5b146100f9575b5f80fd5b610073600480360381019061006e9190610804565b610117565b005b61008f600480360381019061008a9190610804565b6102b4565b6040516100a09594939291906108e2565b60405180910390f35b6100c360048036038101906100be9190610804565b610497565b6040516100d49594939291906108e2565b60405180910390f35b6100f760048036038101906100f29190610a6d565b6105e1565b005b61010161079d565b60405161010e9190610b34565b60405180910390f35b5f8054906101000a900473ffffffffffffffffffffffffffffffffffffffff1673ffffffffffffffffffffffffffffffffffffffff163373ffffffffffffffffffffffffffffffffffffffff16146101a4576040517f08c379a000000000000000000000000000000000000000000000000000000000815260040161019b90610bbd565b60405180910390fd5b5f60015f8381526020019081526020015f205f0154036101f9576040517f08c379a00000000000000000000000000000000000000000000000000000000081526004016101f090610c25565b60405180910390fd5b60015f8281526020019081526020015f206004015f9054906101000a900460ff16610259576040517f08c379a000000000000000000000000000000000000000000000000000000000815260040161025090610c8d565b60405180910390fd5b5f60015f8381526020019081526020015f206004015f6101000a81548160ff021916908315150217905550807fefa6c5f47ac2523bb4db18032377bf7fdce0fa9d86eddcae1ca9bba38be615d760405160405180910390a250565b5f6060805f805f60015f8881526020019081526020015f206040518060a00160405290815f82015481526020016001820180546102f090610cd8565b80601f016020809104026020016040519081016040528092919081815260200182805461031c90610cd8565b80156103675780601f1061033e57610100808354040283529160200191610367565b820191905f5260205f20905b81548152906001019060200180831161034a57829003601f168201915b5050505050815260200160028201805461038090610cd8565b80601f01602080910402602001604051908101604052809291908181526020018280546103ac90610cd8565b80156103f75780601f106103ce576101008083540402835291602001916103f7565b820191905f5260205f20905b8154815290600101906020018083116103da57829003601f168201915b5050505050815260200160038201548152602001600482015f9054906101000a900460ff16151515158152505090505f815f01510361046b576040517f08c379a000000000000000000000000000000000000000000000000000000000815260040161046290610c25565b60405180910390fd5b805f01518160200151826040015183606001518460800151955095509550955095505091939590929450565b6001602052805f5260405f205f91509050805f0154908060010180546104bc90610cd8565b80601f01602080910402602001604051908101604052809291908181526020018280546104e890610cd8565b80156105335780601f1061050a57610100808354040283529160200191610533565b820191905f5260205f20905b81548152906001019060200180831161051657829003601f168201915b50505050509080600201805461054890610cd8565b80601f016020809104026020016040519081016040528092919081815260200182805461057490610cd8565b80156105bf5780601f10610596576101008083540402835291602001916105bf565b820191905f5260205f20905b8154815290600101906020018083116105a257829003601f168201915b505050505090806003015490806004015f9054906101000a900460ff16905085565b5f8054906101000a900473ffffffffffffffffffffffffffffffffffffffff1673ffffffffffffffffffffffffffffffffffffffff163373ffffffffffffffffffffffffffffffffffffffff161461066e576040517f08c379a000000000000000000000000000000000000000000000000000000000815260040161066590610bbd565b60405180910390fd5b5f60015f8581526020019081526020015f205f0154146106c3576040517f08c379a00000000000000000000000000000000000000000000000000000000081526004016106ba90610d52565b60405180910390fd5b6040518060a001604052808481526020018381526020018281526020014281526020016001151581525060015f8581526020019081526020015f205f820151815f0155602082015181600101908161071b9190610f0d565b5060408201518160020190816107319190610f0d565b50606082015181600301556080820151816004015f6101000a81548160ff021916908315150217905550905050827f95837cb784f30cdcd74b8c90e3227dcb7d579c62269b02de7265c46559dec1418383604051610790929190610fdc565b60405180910390a2505050565b5f8054906101000a900473ffffffffffffffffffffffffffffffffffffffff1681565b5f604051905090565b5f80fd5b5f80fd5b5f819050919050565b6107e3816107d1565b81146107ed575f80fd5b50565b5f813590506107fe816107da565b92915050565b5f60208284031215610819576108186107c9565b5b5f610826848285016107f0565b91505092915050565b610838816107d1565b82525050565b5f81519050919050565b5f82825260208201905092915050565b5f5b8381101561087557808201518184015260208101905061085a565b5f8484015250505050565b5f601f19601f8301169050919050565b5f61089a8261083e565b6108a48185610848565b93506108b4818560208601610858565b6108bd81610880565b840191505092915050565b5f8115159050919050565b6108dc816108c8565b82525050565b5f60a0820190506108f55f83018861082f565b81810360208301526109078187610890565b9050818103604083015261091b8186610890565b905061092a606083018561082f565b61093760808301846108d3565b9695505050505050565b5f80fd5b5f80fd5b7f4e487b71000000000000000000000000000000000000000000000000000000005f52604160045260245ffd5b61097f82610880565b810181811067ffffffffffffffff8211171561099e5761099d610949565b5b80604052505050565b5f6109b06107c0565b90506109bc8282610976565b919050565b5f67ffffffffffffffff8211156109db576109da610949565b5b6109e482610880565b9050602081019050919050565b828183375f83830152505050565b5f610a11610a0c846109c1565b6109a7565b905082815260208101848484011115610a2d57610a2c610945565b5b610a388482856109f1565b509392505050565b5f82601f830112610a5457610a53610941565b5b8135610a648482602086016109ff565b91505092915050565b5f805f60608486031215610a8457610a836107c9565b5b5f610a91868287016107f0565b935050602084013567ffffffffffffffff811115610ab257610ab16107cd565b5b610abe86828701610a40565b925050604084013567ffffffffffffffff811115610adf57610ade6107cd565b5b610aeb86828701610a40565b9150509250925092565b5f73ffffffffffffffffffffffffffffffffffffffff82169050919050565b5f610b1e82610af5565b9050919050565b610b2e81610b14565b82525050565b5f602082019050610b475f830184610b25565b92915050565b7f4f6e6c79206f776e65722063616e2063616c6c20746869732066756e6374696f5f8201527f6e00000000000000000000000000000000000000000000000000000000000000602082015250565b5f610ba7602183610848565b9150610bb282610b4d565b604082019050919050565b5f6020820190508181035f830152610bd481610b9b565b9050919050565b7f436572746966696361746520646f6573206e6f742065786973740000000000005f82015250565b5f610c0f601a83610848565b9150610c1a82610bdb565b602082019050919050565b5f6020820190508181035f830152610c3c81610c03565b9050919050565b7f436572746966696361746520697320616c7265616479207265766f6b656400005f82015250565b5f610c77601e83610848565b9150610c8282610c43565b602082019050919050565b5f6020820190508181035f830152610ca481610c6b565b9050919050565b7f4e487b71000000000000000000000000000000000000000000000000000000005f52602260045260245ffd5b5f6002820490506001821680610cef57607f821691505b602082108103610d0257610d01610cab565b5b50919050565b7f436572746966696361746520494420616c7265616479206578697374730000005f82015250565b5f610d3c601d83610848565b9150610d4782610d08565b602082019050919050565b5f6020820190508181035f830152610d6981610d30565b9050919050565b5f819050815f5260205f209050919050565b5f6020601f8301049050919050565b5f82821b905092915050565b5f60088302610dcc7fffffffffffffffffffffffffffffffffffffffffffffffffffffffffffffffff82610d91565b610dd68683610d91565b95508019841693508086168417925050509392505050565b5f819050919050565b5f610e11610e0c610e07846107d1565b610dee565b6107d1565b9050919050565b5f819050919050565b610e2a83610df7565b610e3e610e3682610e18565b848454610d9d565b825550505050565b5f90565b610e52610e46565b610e5d818484610e21565b505050565b5b81811015610e8057610e755f82610e4a565b600181019050610e63565b5050565b601f821115610ec557610e9681610d70565b610e9f84610d82565b81016020851015610eae578190505b610ec2610eba85610d82565b830182610e62565b50505b505050565b5f82821c905092915050565b5f610ee55f1984600802610eca565b1980831691505092915050565b5f610efd8383610ed6565b9150826002028217905092915050565b610f168261083e565b67ffffffffffffffff811115610f2f57610f2e610949565b5b610f398254610cd8565b610f44828285610e84565b5f60209050601f831160018114610f75575f8415610f63578287015190505b610f6d8582610ef2565b865550610fd4565b601f198416610f8386610d70565b5f5b82811015610faa57848901518255600182019150602085019450602081019050610f85565b86831015610fc75784890151610fc3601f891682610ed6565b8355505b6001600288020188555050505b505050505050565b5f6040820190508181035f830152610ff48185610890565b905081810360208301526110088184610890565b9050939250505056fea26469706673582212200403dcb1d54b52daa3ea948a7da112d57b3e3221390bb28f3edf5d0aff7beb9164736f6c63430008150033",
  "immutableReferences": {},
  "source": "// SPDX-License-Identifier: MIT\r\npragma solidity ^0.8.0;\r\n\r\ncontract CertificateRegistry {\r\n    struct Certificate {\r\n        uint256 id;\r\n        string studentName;\r\n        string courseName;\r\n        uint256 issueDate;\r\n        bool isValid;\r\n    }\r\n    \r\n    address public owner;\r\n    mapping(uint256 => Certificate) public certificates;\r\n    \r\n    event CertificateRegistered(uint256 indexed id, string studentName, string courseName);\r\n    event CertificateRevoked(uint256 indexed id);\r\n    \r\n    constructor() {\r\n        owner = msg.sender;\r\n    }\r\n    \r\n    modifier onlyOwner() {\r\n        require(msg.sender == owner, \"Only owner can call this function\");\r\n        _;\r\n    }\r\n    \r\n    function registerCertificate(\r\n        uint256 _id,\r\n        string memory _studentName,\r\n        string memory _courseName\r\n    ) public onlyOwner {\r\n        require(certificates[_id].id == 0, \"Certificate ID already exists\");\r\n        \r\n        certificates[_id] = Certificate({\r\n            id: _id,\r\n            studentName: _studentName,\r\n            courseName: _courseName,\r\n            issueDate: block.timestamp,\r\n            isValid: true\r\n        });\r\n        \r\n        emit CertificateRegistered(_id, _studentName, _courseName);\r\n    }\r\n    \r\n    function getCertificate(uint256 _id) public view returns (\r\n        uint256 id,\r\n        string memory studentName,\r\n        string memory courseName,\r\n        uint256 issueDate,\r\n        bool isValid\r\n    ) {\r\n        Certificate memory cert = certificates[_id];\r\n        require(cert.id != 0, \"Certificate does not exist\");\r\n        \r\n        return (\r\n            cert.id,\r\n            cert.studentName,\r\n            cert.courseName,\r\n            cert.issueDate,\r\n            cert.isValid\r\n        );\r\n    }\r\n    \r\n    function revokeCertificate(uint256 _id) public onlyOwner {\r\n        require(certificates[_id].id != 0, \"Certificate does not exist\");\r\n        require(certificates[_id].isValid, \"Certificate is already revoked\");\r\n        \r\n        certificates[_id].isValid = false;\r\n        emit CertificateRevoked(_id);\r\n    }\r\n}",
  "sourcePath": "C:\\Users\\Gabriel Zaude\\Desktop\\FACULDADE\\tecnologias_emergentes\\blockchain-certificados\\blockchain-certificados\\contracts\\CertificateRegistry.sol",
  "compiler": {
    "name": "solc",
    "version": "0.8.21+commit.d9974bed.Emscripten.clang"
  },
  "schemaVersion": "3.4.16",
  "updatedAt": "2024-12-05T18:47:04.364Z",
  "networkType": "ethereum",
  "devdoc": {
    "kind": "dev",
    "methods": {},
    "version": 1
  },
  "userdoc": {
    "kind": "user",
    "methods": {},
    "version": 1
  }
}